{
  "address": "0x369E0f1323C2b4ee8fEaD77054c6B847DE4c4dBB",
  "abi": [
    {
      "inputs": [],
      "stateMutability": "nonpayable",
      "type": "constructor"
    },
    {
      "anonymous": false,
      "inputs": [
        {
          "indexed": true,
          "internalType": "address",
          "name": "previousOwner",
          "type": "address"
        },
        {
          "indexed": true,
          "internalType": "address",
          "name": "newOwner",
          "type": "address"
        }
      ],
      "name": "OwnershipTransferred",
      "type": "event"
    },
    {
      "inputs": [],
      "name": "defaultFee",
      "outputs": [
        {
          "internalType": "uint256",
          "name": "",
          "type": "uint256"
        }
      ],
      "stateMutability": "view",
      "type": "function"
    },
    {
      "inputs": [
        {
          "internalType": "address",
          "name": "",
          "type": "address"
        }
      ],
      "name": "fees",
      "outputs": [
        {
          "internalType": "uint256",
          "name": "",
          "type": "uint256"
        }
      ],
      "stateMutability": "view",
      "type": "function"
    },
    {
      "inputs": [
        {
          "internalType": "address",
          "name": "pairAddress",
          "type": "address"
        }
      ],
      "name": "getFee",
      "outputs": [
        {
          "internalType": "uint256",
          "name": "",
          "type": "uint256"
        }
      ],
      "stateMutability": "view",
      "type": "function"
    },
    {
      "inputs": [],
      "name": "getTreasury",
      "outputs": [
        {
          "internalType": "address",
          "name": "",
          "type": "address"
        }
      ],
      "stateMutability": "view",
      "type": "function"
    },
    {
      "inputs": [],
      "name": "owner",
      "outputs": [
        {
          "internalType": "address",
          "name": "",
          "type": "address"
        }
      ],
      "stateMutability": "view",
      "type": "function"
    },
    {
      "inputs": [
        {
          "internalType": "uint256",
          "name": "fee",
          "type": "uint256"
        }
      ],
      "name": "putDefaultFee",
      "outputs": [],
      "stateMutability": "nonpayable",
      "type": "function"
    },
    {
      "inputs": [
        {
          "internalType": "address",
          "name": "pairAddress",
          "type": "address"
        },
        {
          "internalType": "uint256",
          "name": "fee",
          "type": "uint256"
        }
      ],
      "name": "putFee",
      "outputs": [],
      "stateMutability": "nonpayable",
      "type": "function"
    },
    {
      "inputs": [
        {
          "internalType": "address",
          "name": "_tresury",
          "type": "address"
        }
      ],
      "name": "putTreasury",
      "outputs": [],
      "stateMutability": "nonpayable",
      "type": "function"
    },
    {
      "inputs": [],
      "name": "renounceOwnership",
      "outputs": [],
      "stateMutability": "nonpayable",
      "type": "function"
    },
    {
      "inputs": [
        {
          "internalType": "address",
          "name": "newOwner",
          "type": "address"
        }
      ],
      "name": "transferOwnership",
      "outputs": [],
      "stateMutability": "nonpayable",
      "type": "function"
    },
    {
      "inputs": [],
      "name": "tresury",
      "outputs": [
        {
          "internalType": "address",
          "name": "",
          "type": "address"
        }
      ],
      "stateMutability": "view",
      "type": "function"
    }
  ],
  "transactionHash": "0x6730c497b6741a5fec73018631a4c030ff7e95f8f9c4712da4c3a71e5eb714ce",
  "args": [],
  "numDeployments": 1,
  "solcInputHash": "02829b629a3b7feb1abd46af1b254d63",
  "bytecode": "0x60806040526103e860025534801561001657600080fd5b506000610021610082565b600080546001600160a01b0319166001600160a01b0383169081178255604051929350917f8be0079c531659141344cd1fd0a4f28419497f9722a3daafe3b4186f6b6457e0908290a350600380546001600160a01b03191633179055610086565b3390565b610696806100956000396000f3fe608060405234801561001057600080fd5b50600436106100a85760003560e01c8063715018a611610071578063715018a6146101475780638da5cb5b1461014f578063b88c914814610157578063bd50c5641461017d578063f2fde38b1461019a578063faaebd21146101c0576100a8565b8062fdcd23146100ad5780633b19e84a146100d55780635a3cc484146100f95780635a6c72d0146101015780635bb6824a1461011b575b600080fd5b6100d3600480360360208110156100c357600080fd5b50356001600160a01b03166101e6565b005b6100dd61026a565b604080516001600160a01b039092168252519081900360200190f35b6100dd610279565b610109610288565b60408051918252519081900360200190f35b6100d36004803603604081101561013157600080fd5b506001600160a01b03813516906020013561028e565b6100d3610353565b6100dd6103ff565b6101096004803603602081101561016d57600080fd5b50356001600160a01b031661040e565b6100d36004803603602081101561019357600080fd5b5035610454565b6100d3600480360360208110156101b057600080fd5b50356001600160a01b0316610502565b610109600480360360208110156101d657600080fd5b50356001600160a01b0316610604565b6101ee610616565b6001600160a01b03166101ff6103ff565b6001600160a01b031614610248576040805162461bcd60e51b81526020600482018190526024820152600080516020610641833981519152604482015290519081900360640190fd5b600380546001600160a01b0319166001600160a01b0392909216919091179055565b6003546001600160a01b031690565b6003546001600160a01b031681565b60025481565b610296610616565b6001600160a01b03166102a76103ff565b6001600160a01b0316146102f0576040805162461bcd60e51b81526020600482018190526024820152600080516020610641833981519152604482015290519081900360640190fd5b620186a0811115610337576040805162461bcd60e51b815260206004820152600c60248201526b0cccaca40e8dede40d0d2ced60a31b604482015290519081900360640190fd5b6001600160a01b03909116600090815260016020526040902055565b61035b610616565b6001600160a01b031661036c6103ff565b6001600160a01b0316146103b5576040805162461bcd60e51b81526020600482018190526024820152600080516020610641833981519152604482015290519081900360640190fd5b600080546040516001600160a01b03909116907f8be0079c531659141344cd1fd0a4f28419497f9722a3daafe3b4186f6b6457e0908390a3600080546001600160a01b0319169055565b6000546001600160a01b031690565b6001600160a01b0381166000908152600160205260408120541561044a576001600160a01b03821660009081526001602052604090205461044e565b6002545b92915050565b61045c610616565b6001600160a01b031661046d6103ff565b6001600160a01b0316146104b6576040805162461bcd60e51b81526020600482018190526024820152600080516020610641833981519152604482015290519081900360640190fd5b620186a08111156104fd576040805162461bcd60e51b815260206004820152600c60248201526b0cccaca40e8dede40d0d2ced60a31b604482015290519081900360640190fd5b600255565b61050a610616565b6001600160a01b031661051b6103ff565b6001600160a01b031614610564576040805162461bcd60e51b81526020600482018190526024820152600080516020610641833981519152604482015290519081900360640190fd5b6001600160a01b0381166105a95760405162461bcd60e51b815260040180806020018281038252602681526020018061061b6026913960400191505060405180910390fd5b600080546040516001600160a01b03808516939216917f8be0079c531659141344cd1fd0a4f28419497f9722a3daafe3b4186f6b6457e091a3600080546001600160a01b0319166001600160a01b0392909216919091179055565b60016020526000908152604090205481565b339056fe4f776e61626c653a206e6577206f776e657220697320746865207a65726f20616464726573734f776e61626c653a2063616c6c6572206973206e6f7420746865206f776e6572a2646970667358221220022076b9ee5ec2b802fb5a7716d30fe426e8a2fa9078b24ea5e844847a2a8f7e64736f6c634300060c0033",
  "devdoc": {
    "kind": "dev",
    "methods": {
      "owner()": {
        "details": "Returns the address of the current owner."
      },
      "renounceOwnership()": {
        "details": "Leaves the contract without owner. It will not be possible to call `onlyOwner` functions anymore. Can only be called by the current owner. NOTE: Renouncing ownership will leave the contract without an owner, thereby removing any functionality that is only available to the owner."
      },
      "transferOwnership(address)": {
        "details": "Transfers ownership of the contract to a new account (`newOwner`). Can only be called by the current owner."
      }
    },
    "version": 1
  },
  "userdoc": {
    "kind": "user",
    "methods": {},
    "version": 1
  },
  "storageLayout": {
    "storage": [
      {
        "astId": 7,
        "contract": "contracts/Governance.sol:FeeGovernance",
        "label": "_owner",
        "offset": 0,
        "slot": "0",
        "type": "t_address"
      },
      {
        "astId": 146,
        "contract": "contracts/Governance.sol:FeeGovernance",
        "label": "fees",
        "offset": 0,
        "slot": "1",
        "type": "t_mapping(t_address,t_uint256)"
      },
      {
        "astId": 151,
        "contract": "contracts/Governance.sol:FeeGovernance",
        "label": "defaultFee",
        "offset": 0,
        "slot": "2",
        "type": "t_uint256"
      },
      {
        "astId": 153,
        "contract": "contracts/Governance.sol:FeeGovernance",
        "label": "tresury",
        "offset": 0,
        "slot": "3",
        "type": "t_address"
      }
    ],
    "types": {
      "t_address": {
        "encoding": "inplace",
        "label": "address",
        "numberOfBytes": "20"
      },
      "t_mapping(t_address,t_uint256)": {
        "encoding": "mapping",
        "key": "t_address",
        "label": "mapping(address => uint256)",
        "numberOfBytes": "32",
        "value": "t_uint256"
      },
      "t_uint256": {
        "encoding": "inplace",
        "label": "uint256",
        "numberOfBytes": "32"
      }
    }
  }
}