{
  "address": "0x92538D231fc4748799d537664A21099f4d6D273e",
  "abi": [
    {
      "inputs": [
        {
          "internalType": "string",
          "name": "name_",
          "type": "string"
        },
        {
          "internalType": "string",
          "name": "symbol_",
          "type": "string"
        },
        {
          "internalType": "uint8",
          "name": "decimal_",
          "type": "uint8"
        }
      ],
      "stateMutability": "nonpayable",
      "type": "constructor"
    },
    {
      "anonymous": false,
      "inputs": [
        {
          "indexed": true,
          "internalType": "address",
          "name": "owner",
          "type": "address"
        },
        {
          "indexed": true,
          "internalType": "address",
          "name": "spender",
          "type": "address"
        },
        {
          "indexed": false,
          "internalType": "uint256",
          "name": "value",
          "type": "uint256"
        }
      ],
      "name": "Approval",
      "type": "event"
    },
    {
      "anonymous": false,
      "inputs": [
        {
          "indexed": true,
          "internalType": "address",
          "name": "from",
          "type": "address"
        },
        {
          "indexed": true,
          "internalType": "address",
          "name": "to",
          "type": "address"
        },
        {
          "indexed": false,
          "internalType": "uint256",
          "name": "value",
          "type": "uint256"
        }
      ],
      "name": "Transfer",
      "type": "event"
    },
    {
      "inputs": [
        {
          "internalType": "address",
          "name": "owner",
          "type": "address"
        },
        {
          "internalType": "address",
          "name": "spender",
          "type": "address"
        }
      ],
      "name": "allowance",
      "outputs": [
        {
          "internalType": "uint256",
          "name": "",
          "type": "uint256"
        }
      ],
      "stateMutability": "view",
      "type": "function"
    },
    {
      "inputs": [
        {
          "internalType": "address",
          "name": "spender",
          "type": "address"
        },
        {
          "internalType": "uint256",
          "name": "amount",
          "type": "uint256"
        }
      ],
      "name": "approve",
      "outputs": [
        {
          "internalType": "bool",
          "name": "",
          "type": "bool"
        }
      ],
      "stateMutability": "nonpayable",
      "type": "function"
    },
    {
      "inputs": [
        {
          "internalType": "address",
          "name": "account",
          "type": "address"
        }
      ],
      "name": "balanceOf",
      "outputs": [
        {
          "internalType": "uint256",
          "name": "",
          "type": "uint256"
        }
      ],
      "stateMutability": "view",
      "type": "function"
    },
    {
      "inputs": [
        {
          "internalType": "uint256",
          "name": "amount",
          "type": "uint256"
        }
      ],
      "name": "burn",
      "outputs": [],
      "stateMutability": "nonpayable",
      "type": "function"
    },
    {
      "inputs": [],
      "name": "decimals",
      "outputs": [
        {
          "internalType": "uint8",
          "name": "",
          "type": "uint8"
        }
      ],
      "stateMutability": "view",
      "type": "function"
    },
    {
      "inputs": [
        {
          "internalType": "address",
          "name": "to",
          "type": "address"
        },
        {
          "internalType": "uint256",
          "name": "amount",
          "type": "uint256"
        }
      ],
      "name": "mint",
      "outputs": [],
      "stateMutability": "nonpayable",
      "type": "function"
    },
    {
      "inputs": [],
      "name": "name",
      "outputs": [
        {
          "internalType": "string",
          "name": "",
          "type": "string"
        }
      ],
      "stateMutability": "view",
      "type": "function"
    },
    {
      "inputs": [],
      "name": "symbol",
      "outputs": [
        {
          "internalType": "string",
          "name": "",
          "type": "string"
        }
      ],
      "stateMutability": "view",
      "type": "function"
    },
    {
      "inputs": [],
      "name": "totalSupply",
      "outputs": [
        {
          "internalType": "uint256",
          "name": "",
          "type": "uint256"
        }
      ],
      "stateMutability": "view",
      "type": "function"
    },
    {
      "inputs": [
        {
          "internalType": "address",
          "name": "recipient",
          "type": "address"
        },
        {
          "internalType": "uint256",
          "name": "amount",
          "type": "uint256"
        }
      ],
      "name": "transfer",
      "outputs": [
        {
          "internalType": "bool",
          "name": "",
          "type": "bool"
        }
      ],
      "stateMutability": "nonpayable",
      "type": "function"
    },
    {
      "inputs": [
        {
          "internalType": "address",
          "name": "sender",
          "type": "address"
        },
        {
          "internalType": "address",
          "name": "recipient",
          "type": "address"
        },
        {
          "internalType": "uint256",
          "name": "amount",
          "type": "uint256"
        }
      ],
      "name": "transferFrom",
      "outputs": [
        {
          "internalType": "bool",
          "name": "",
          "type": "bool"
        }
      ],
      "stateMutability": "nonpayable",
      "type": "function"
    }
  ],
  "transactionHash": "0xdab3df485539ab6f32431e643588398ef7cd1e45d62d98f40e0970862c3d9124",
  "args": [
    "Tether",
    "USDT",
    6
  ],
  "numDeployments": 1,
  "solcInputHash": "2009caed55a8e0f990561a8deeebca5d",
  "bytecode": "0x60806040523480156200001157600080fd5b5060405162000ccc38038062000ccc8339810160408190526200003491620001f9565b82828282600390805190602001906200004f92919062000086565b5081516200006590600490602085019062000086565b506005805460ff191660ff9290921691909117905550620002bb9350505050565b82805462000094906200027e565b90600052602060002090601f016020900481019282620000b8576000855562000103565b82601f10620000d357805160ff191683800117855562000103565b8280016001018555821562000103579182015b8281111562000103578251825591602001919060010190620000e6565b506200011192915062000115565b5090565b5b8082111562000111576000815560010162000116565b634e487b7160e01b600052604160045260246000fd5b600082601f8301126200015457600080fd5b81516001600160401b03808211156200017157620001716200012c565b604051601f8301601f19908116603f011681019082821181831017156200019c576200019c6200012c565b81604052838152602092508683858801011115620001b957600080fd5b600091505b83821015620001dd5785820183015181830184015290820190620001be565b83821115620001ef5760008385830101525b9695505050505050565b6000806000606084860312156200020f57600080fd5b83516001600160401b03808211156200022757600080fd5b620002358783880162000142565b945060208601519150808211156200024c57600080fd5b506200025b8682870162000142565b925050604084015160ff811681146200027357600080fd5b809150509250925092565b600181811c908216806200029357607f821691505b60208210811415620002b557634e487b7160e01b600052602260045260246000fd5b50919050565b610a0180620002cb6000396000f3fe608060405234801561001057600080fd5b50600436106100a95760003560e01c806340c10f191161007157806340c10f191461012957806342966c681461013e57806370a082311461015157806395d89b411461017a578063a9059cbb14610182578063dd62ed3e1461019557600080fd5b806306fdde03146100ae578063095ea7b3146100cc57806318160ddd146100ef57806323b872dd14610101578063313ce56714610114575b600080fd5b6100b66101ce565b6040516100c39190610806565b60405180910390f35b6100df6100da366004610877565b610260565b60405190151581526020016100c3565b6002545b6040519081526020016100c3565b6100df61010f3660046108a1565b610277565b60055460405160ff90911681526020016100c3565b61013c610137366004610877565b6102c8565b005b61013c61014c3660046108dd565b6102d6565b6100f361015f3660046108f6565b6001600160a01b031660009081526020819052604090205490565b6100b66102e3565b6100df610190366004610877565b6102f2565b6100f36101a3366004610918565b6001600160a01b03918216600090815260016020908152604080832093909416825291909152205490565b6060600380546101dd9061094b565b80601f01602080910402602001604051908101604052809291908181526020018280546102099061094b565b80156102565780601f1061022b57610100808354040283529160200191610256565b820191906000526020600020905b81548152906001019060200180831161023957829003601f168201915b5050505050905090565b600061026d3384846102ff565b5060015b92915050565b6000610284848484610429565b6001600160a01b0384166000908152600160209081526040808320338085529252909120546102be9186916102b99086610592565b6102ff565b5060019392505050565b6102d282826105e8565b5050565b6102e033826106c7565b50565b6060600480546101dd9061094b565b600061026d338484610429565b6001600160a01b0383166103665760405162461bcd60e51b8152602060048201526024808201527f45524332303a20617070726f76652066726f6d20746865207a65726f206164646044820152637265737360e01b60648201526084015b60405180910390fd5b6001600160a01b0382166103c75760405162461bcd60e51b815260206004820152602260248201527f45524332303a20617070726f766520746f20746865207a65726f206164647265604482015261737360f01b606482015260840161035d565b6001600160a01b0383811660008181526001602090815260408083209487168084529482529182902085905590518481527f8c5be1e5ebec7d5bd14f71427d1e84f3dd0314c0f7b2291e5b200ac8c7c3b92591015b60405180910390a3505050565b6001600160a01b03831661048d5760405162461bcd60e51b815260206004820152602560248201527f45524332303a207472616e736665722066726f6d20746865207a65726f206164604482015264647265737360d81b606482015260840161035d565b6001600160a01b0382166104ef5760405162461bcd60e51b815260206004820152602360248201527f45524332303a207472616e7366657220746f20746865207a65726f206164647260448201526265737360e81b606482015260840161035d565b6001600160a01b0383166000908152602081905260409020546105129082610592565b6001600160a01b03808516600090815260208190526040808220939093559084168152205461054190826107b1565b6001600160a01b038381166000818152602081815260409182902094909455518481529092918616917fddf252ad1be2c89b69c2b068fc378daa952ba7f163c4a11628f55a4df523b3ef910161041c565b60008261059f838261099c565b91508111156102715760405162461bcd60e51b815260206004820152601560248201527464732d6d6174682d7375622d756e646572666c6f7760581b604482015260640161035d565b6001600160a01b03821661063e5760405162461bcd60e51b815260206004820152601f60248201527f45524332303a206d696e7420746f20746865207a65726f206164647265737300604482015260640161035d565b60025461064b90826107b1565b6002556001600160a01b03821660009081526020819052604090205461067190826107b1565b6001600160a01b038316600081815260208181526040808320949094559251848152919290917fddf252ad1be2c89b69c2b068fc378daa952ba7f163c4a11628f55a4df523b3ef91015b60405180910390a35050565b6001600160a01b0382166107275760405162461bcd60e51b815260206004820152602160248201527f45524332303a206275726e2066726f6d20746865207a65726f206164647265736044820152607360f81b606482015260840161035d565b6001600160a01b03821660009081526020819052604090205461074a9082610592565b6001600160a01b0383166000908152602081905260409020556002546107709082610592565b6002556040518181526000906001600160a01b038416907fddf252ad1be2c89b69c2b068fc378daa952ba7f163c4a11628f55a4df523b3ef906020016106bb565b6000826107be83826109b3565b91508110156102715760405162461bcd60e51b815260206004820152601460248201527364732d6d6174682d6164642d6f766572666c6f7760601b604482015260640161035d565b600060208083528351808285015260005b8181101561083357858101830151858201604001528201610817565b81811115610845576000604083870101525b50601f01601f1916929092016040019392505050565b80356001600160a01b038116811461087257600080fd5b919050565b6000806040838503121561088a57600080fd5b6108938361085b565b946020939093013593505050565b6000806000606084860312156108b657600080fd5b6108bf8461085b565b92506108cd6020850161085b565b9150604084013590509250925092565b6000602082840312156108ef57600080fd5b5035919050565b60006020828403121561090857600080fd5b6109118261085b565b9392505050565b6000806040838503121561092b57600080fd5b6109348361085b565b91506109426020840161085b565b90509250929050565b600181811c9082168061095f57607f821691505b6020821081141561098057634e487b7160e01b600052602260045260246000fd5b50919050565b634e487b7160e01b600052601160045260246000fd5b6000828210156109ae576109ae610986565b500390565b600082198211156109c6576109c6610986565b50019056fea2646970667358221220586ea603d930df914946364ff0113e1efe287cd73e4ac0f7213ff40cd5a44fa064736f6c63430008090033",
  "devdoc": {
    "kind": "dev",
    "methods": {},
    "version": 1
  },
  "userdoc": {
    "kind": "user",
    "methods": {},
    "version": 1
  },
  "storageLayout": {
    "storage": [
      {
        "astId": 12,
        "contract": "contracts/mocks/USDT.sol:USDT",
        "label": "_balances",
        "offset": 0,
        "slot": "0",
        "type": "t_mapping(t_address,t_uint256)"
      },
      {
        "astId": 18,
        "contract": "contracts/mocks/USDT.sol:USDT",
        "label": "_allowances",
        "offset": 0,
        "slot": "1",
        "type": "t_mapping(t_address,t_mapping(t_address,t_uint256))"
      },
      {
        "astId": 20,
        "contract": "contracts/mocks/USDT.sol:USDT",
        "label": "_totalSupply",
        "offset": 0,
        "slot": "2",
        "type": "t_uint256"
      },
      {
        "astId": 22,
        "contract": "contracts/mocks/USDT.sol:USDT",
        "label": "_name",
        "offset": 0,
        "slot": "3",
        "type": "t_string_storage"
      },
      {
        "astId": 24,
        "contract": "contracts/mocks/USDT.sol:USDT",
        "label": "_symbol",
        "offset": 0,
        "slot": "4",
        "type": "t_string_storage"
      },
      {
        "astId": 26,
        "contract": "contracts/mocks/USDT.sol:USDT",
        "label": "_decimals",
        "offset": 0,
        "slot": "5",
        "type": "t_uint8"
      }
    ],
    "types": {
      "t_address": {
        "encoding": "inplace",
        "label": "address",
        "numberOfBytes": "20"
      },
      "t_mapping(t_address,t_mapping(t_address,t_uint256))": {
        "encoding": "mapping",
        "key": "t_address",
        "label": "mapping(address => mapping(address => uint256))",
        "numberOfBytes": "32",
        "value": "t_mapping(t_address,t_uint256)"
      },
      "t_mapping(t_address,t_uint256)": {
        "encoding": "mapping",
        "key": "t_address",
        "label": "mapping(address => uint256)",
        "numberOfBytes": "32",
        "value": "t_uint256"
      },
      "t_string_storage": {
        "encoding": "bytes",
        "label": "string",
        "numberOfBytes": "32"
      },
      "t_uint256": {
        "encoding": "inplace",
        "label": "uint256",
        "numberOfBytes": "32"
      },
      "t_uint8": {
        "encoding": "inplace",
        "label": "uint8",
        "numberOfBytes": "1"
      }
    }
  }
}