{
  "address": "0x7e753a9f5585e67149d452F94309f490c3853A89",
  "abi": [
    {
      "inputs": [
        {
          "internalType": "address",
          "name": "carrotBridgeConnectorAddress",
          "type": "address"
        }
      ],
      "stateMutability": "nonpayable",
      "type": "constructor"
    },
    {
      "inputs": [],
      "name": "InvalidAddress",
      "type": "error"
    },
    {
      "inputs": [],
      "name": "InvalidBridgeMessageCall",
      "type": "error"
    },
    {
      "inputs": [],
      "name": "InvalidBridgeRevertCall",
      "type": "error"
    },
    {
      "inputs": [
        {
          "internalType": "address",
          "name": "caller",
          "type": "address"
        }
      ],
      "name": "InvalidCaller",
      "type": "error"
    },
    {
      "inputs": [],
      "name": "InvalidDestinationChainId",
      "type": "error"
    },
    {
      "inputs": [
        {
          "internalType": "address",
          "name": "owner",
          "type": "address"
        }
      ],
      "name": "OwnableInvalidOwner",
      "type": "error"
    },
    {
      "inputs": [
        {
          "internalType": "address",
          "name": "account",
          "type": "address"
        }
      ],
      "name": "OwnableUnauthorizedAccount",
      "type": "error"
    },
    {
      "anonymous": false,
      "inputs": [
        {
          "indexed": false,
          "internalType": "uint256",
          "name": "tokenId",
          "type": "uint256"
        },
        {
          "indexed": false,
          "internalType": "address",
          "name": "from",
          "type": "address"
        },
        {
          "indexed": false,
          "internalType": "uint256",
          "name": "amount",
          "type": "uint256"
        }
      ],
      "name": "Burned",
      "type": "event"
    },
    {
      "anonymous": false,
      "inputs": [
        {
          "indexed": false,
          "internalType": "uint256",
          "name": "tokenId",
          "type": "uint256"
        },
        {
          "indexed": false,
          "internalType": "address",
          "name": "to",
          "type": "address"
        },
        {
          "indexed": false,
          "internalType": "uint256",
          "name": "amount",
          "type": "uint256"
        }
      ],
      "name": "Minted",
      "type": "event"
    },
    {
      "anonymous": false,
      "inputs": [
        {
          "indexed": true,
          "internalType": "address",
          "name": "previousOwner",
          "type": "address"
        },
        {
          "indexed": true,
          "internalType": "address",
          "name": "newOwner",
          "type": "address"
        }
      ],
      "name": "OwnershipTransferred",
      "type": "event"
    },
    {
      "inputs": [],
      "name": "connector",
      "outputs": [
        {
          "internalType": "contract CarrotBridgeConnectorBase",
          "name": "",
          "type": "address"
        }
      ],
      "stateMutability": "view",
      "type": "function"
    },
    {
      "inputs": [
        {
          "internalType": "uint256",
          "name": "",
          "type": "uint256"
        }
      ],
      "name": "interactorsByChainId",
      "outputs": [
        {
          "internalType": "address",
          "name": "",
          "type": "address"
        }
      ],
      "stateMutability": "view",
      "type": "function"
    },
    {
      "inputs": [
        {
          "components": [
            {
              "internalType": "address",
              "name": "txSenderAddress",
              "type": "address"
            },
            {
              "internalType": "uint256",
              "name": "sourceChainId",
              "type": "uint256"
            },
            {
              "internalType": "address",
              "name": "destinationAddress",
              "type": "address"
            },
            {
              "internalType": "bytes",
              "name": "message",
              "type": "bytes"
            }
          ],
          "internalType": "struct CarrotBridgeInterfaces.BridgeMessage",
          "name": "message",
          "type": "tuple"
        }
      ],
      "name": "onBridgeMessage",
      "outputs": [],
      "stateMutability": "nonpayable",
      "type": "function"
    },
    {
      "inputs": [
        {
          "components": [
            {
              "internalType": "address",
              "name": "txSenderAddress",
              "type": "address"
            },
            {
              "internalType": "uint256",
              "name": "sourceChainId",
              "type": "uint256"
            },
            {
              "internalType": "address",
              "name": "destinationAddress",
              "type": "address"
            },
            {
              "internalType": "uint256",
              "name": "destinationChainId",
              "type": "uint256"
            },
            {
              "internalType": "bytes",
              "name": "message",
              "type": "bytes"
            }
          ],
          "internalType": "struct CarrotBridgeInterfaces.BridgeRevert",
          "name": "bridgeRevert",
          "type": "tuple"
        }
      ],
      "name": "onBridgeRevert",
      "outputs": [],
      "stateMutability": "nonpayable",
      "type": "function"
    },
    {
      "inputs": [],
      "name": "owner",
      "outputs": [
        {
          "internalType": "address",
          "name": "",
          "type": "address"
        }
      ],
      "stateMutability": "view",
      "type": "function"
    },
    {
      "inputs": [],
      "name": "renounceOwnership",
      "outputs": [],
      "stateMutability": "nonpayable",
      "type": "function"
    },
    {
      "inputs": [
        {
          "internalType": "address",
          "name": "toAddress",
          "type": "address"
        },
        {
          "internalType": "uint256",
          "name": "chainId",
          "type": "uint256"
        },
        {
          "internalType": "uint256",
          "name": "tokenId",
          "type": "uint256"
        },
        {
          "internalType": "uint256",
          "name": "amount",
          "type": "uint256"
        }
      ],
      "name": "sendERC20",
      "outputs": [],
      "stateMutability": "nonpayable",
      "type": "function"
    },
    {
      "inputs": [
        {
          "internalType": "address",
          "name": "toAddress",
          "type": "address"
        },
        {
          "internalType": "uint256",
          "name": "chainId",
          "type": "uint256"
        }
      ],
      "name": "sendETH",
      "outputs": [],
      "stateMutability": "payable",
      "type": "function"
    },
    {
      "inputs": [
        {
          "internalType": "uint256",
          "name": "destinationChainId",
          "type": "uint256"
        },
        {
          "internalType": "address",
          "name": "contractAddress",
          "type": "address"
        }
      ],
      "name": "setInteractorByChainId",
      "outputs": [],
      "stateMutability": "nonpayable",
      "type": "function"
    },
    {
      "inputs": [
        {
          "internalType": "uint256",
          "name": "tokenId",
          "type": "uint256"
        },
        {
          "internalType": "address",
          "name": "tokenAddress",
          "type": "address"
        }
      ],
      "name": "setToken",
      "outputs": [],
      "stateMutability": "nonpayable",
      "type": "function"
    },
    {
      "inputs": [
        {
          "internalType": "address",
          "name": "newOwner",
          "type": "address"
        }
      ],
      "name": "transferOwnership",
      "outputs": [],
      "stateMutability": "nonpayable",
      "type": "function"
    }
  ],
  "transactionHash": "0x84288f7daa79a1f16f345ca842b3bed6b4db55d5ae6999acfb21c97bb71165d3",
  "args": [
    "0x9d0178586025Df843FD8a18B5c1DC8e44BC6d01a"
  ],
  "numDeployments": 3,
  "solcInputHash": "302c41a4706f9671649bb9f3b57eff78",
  "bytecode": "0x60c060405234801561001057600080fd5b5060405161111538038061111583398101604081905261002f916100ed565b80338061005657604051631e4fbdf760e01b81526000600482015260240160405180910390fd5b61005f8161009d565b506001600160a01b0381166100875760405163e6c4247b60e01b815260040160405180910390fd5b466080526001600160a01b031660a0525061011d565b600080546001600160a01b038381166001600160a01b0319831681178455604051919092169283917f8be0079c531659141344cd1fd0a4f28419497f9722a3daafe3b4186f6b6457e09190a35050565b6000602082840312156100ff57600080fd5b81516001600160a01b038116811461011657600080fd5b9392505050565b60805160a051610f94610181600039600081816101af015281816103d70152818161074001528181610893015281816108d501526109110152600081816103680152818161040c0152818161050901528181610a450152610aa50152610f946000f3fe60806040526004361061009c5760003560e01c8063715018a611610064578063715018a61461016857806380bd3cab1461017d57806383f3084f1461019d5780638da5cb5b146101d1578063af906cf3146101ef578063f2fde38b1461020f57600080fd5b80632618143f146100a1578063358e8305146100f3578063469cff8c1461011557806364a197f3146101355780636e66e10d14610148575b600080fd5b3480156100ad57600080fd5b506100d76100bc366004610c3a565b6001602052600090815260409020546001600160a01b031681565b6040516001600160a01b03909116815260200160405180910390f35b3480156100ff57600080fd5b5061011361010e366004610c53565b61022f565b005b34801561012157600080fd5b50610113610130366004610caa565b6102d2565b610113610143366004610cda565b610308565b34801561015457600080fd5b50610113610163366004610d06565b6104c9565b34801561017457600080fd5b5061011361054f565b34801561018957600080fd5b50610113610198366004610d41565b610563565b3480156101a957600080fd5b506100d77f000000000000000000000000000000000000000000000000000000000000000081565b3480156101dd57600080fd5b506000546001600160a01b03166100d7565b3480156101fb57600080fd5b5061011361020a366004610caa565b610814565b34801561021b57600080fd5b5061011361022a366004610d7c565b61084a565b80610238610888565b60208082018035600090815260019092526040909120546001600160a01b0316906102639083610d7c565b6001600160a01b03161461028a576040516302795bef60e41b815260040160405180910390fd5b6000808061029b6060860186610d99565b8101906102a89190610de7565b919450925090506102cb602086018035906102c39088610d7c565b8585856108d3565b5050505050565b6102da610bbd565b60009182526001602052604090912080546001600160a01b0319166001600160a01b03909216919091179055565b6000818152600160205260409020546001600160a01b03166103455760405162461bcd60e51b815260040161033c90610e1f565b60405180910390fd5b7f7a6396f9141e42bbd82eddb43e30077ef07aaafcd4ee3dfbd6adb1dca8f2445a7f0000000000000000000000000000000000000000000000000000000000000000333460405161039893929190610e4b565b60405180910390a16040805160a081018252828152600083815260016020908152838220546001600160a01b03908116828501528385019290925292517f00000000000000000000000000000000000000000000000000000000000000009091169263d42ae69792916060830191610436917f0000000000000000000000000000000000000000000000000000000000000000918991349101610e4b565b604051602081830303815290604052815260200160405160200161046590602080825260009082015260400190565b6040516020818303038152906040528152506040518263ffffffff1660e01b81526004016104939190610eb7565b600060405180830381600087803b1580156104ad57600080fd5b505af11580156104c1573d6000803e3d6000fd5b505050505050565b806104d2610888565b306104e06020830183610d7c565b6001600160a01b0316146105075760405163325da14960e11b815260040160405180910390fd5b7f000000000000000000000000000000000000000000000000000000000000000081602001351461054b5760405163325da14960e11b815260040160405180910390fd5b5050565b610557610bbd565b6105616000610bea565b565b6000828152600260205260409020546001600160a01b03166105975760405162461bcd60e51b815260040161033c90610e1f565b6000838152600160205260409020546001600160a01b03166105cb5760405162461bcd60e51b815260040161033c90610e1f565b600082815260026020526040908190205490516323b872dd60e01b8152336004820152306024820152604481018390526001600160a01b03909116906323b872dd90606401602060405180830381600087803b15801561062a57600080fd5b505af115801561063e573d6000803e3d6000fd5b505050506040513d601f19601f820116820180604052508101906106629190610f1f565b5060008281526002602052604090819020549051630852cd8d60e31b8152600481018390526001600160a01b03909116906342966c6890602401600060405180830381600087803b1580156106b657600080fd5b505af11580156106ca573d6000803e3d6000fd5b505050507f7a6396f9141e42bbd82eddb43e30077ef07aaafcd4ee3dfbd6adb1dca8f2445a82338360405161070193929190610e4b565b60405180910390a16040805160a081018252848152600085815260016020908152838220546001600160a01b03908116828501528385019290925292517f00000000000000000000000000000000000000000000000000000000000000009091169263d42ae6979291606083019161077f9188918b91899101610e4b565b60405160208183030381529060405281526020016040516020016107ae90602080825260009082015260400190565b6040516020818303038152906040528152506040518263ffffffff1660e01b81526004016107dc9190610eb7565b600060405180830381600087803b1580156107f657600080fd5b505af115801561080a573d6000803e3d6000fd5b5050505050505050565b61081c610bbd565b60009182526002602052604090912080546001600160a01b0319166001600160a01b03909216919091179055565b610852610bbd565b6001600160a01b03811661087c57604051631e4fbdf760e01b81526000600482015260240161033c565b61088581610bea565b50565b336001600160a01b037f000000000000000000000000000000000000000000000000000000000000000016146105615760405163065ece9760e51b815233600482015260240161033c565b7f00000000000000000000000000000000000000000000000000000000000000006001600160a01b03163314806109ab5750336001600160a01b03167f00000000000000000000000000000000000000000000000000000000000000006001600160a01b0316635b1125916040518163ffffffff1660e01b815260040160206040518083038186803b15801561096857600080fd5b505afa15801561097c573d6000803e3d6000fd5b505050506040513d601f19601f820116820180604052508101906109a09190610f41565b6001600160a01b0316145b6109eb5760405162461bcd60e51b815260206004820152601160248201527014195c9b5a5cdcda5bdb8811195b9a5959607a1b604482015260640161033c565b6000858152600360205260409020546001600160a01b0385811691161415610a435760405162461bcd60e51b815260206004820152600b60248201526a139bdd08185b1b1bddd95960aa1b604482015260640161033c565b7f0000000000000000000000000000000000000000000000000000000000000000831480610a8757506000838152600260205260409020546001600160a01b031615155b610aa35760405162461bcd60e51b815260040161033c90610e1f565b7f0000000000000000000000000000000000000000000000000000000000000000831415610b07576040516001600160a01b0383169082156108fc029083906000818181858888f19350505050158015610b01573d6000803e3d6000fd5b50610b7b565b600083815260026020526040908190205490516340c10f1960e01b81526001600160a01b03848116600483015260248201849052909116906340c10f1990604401600060405180830381600087803b158015610b6257600080fd5b505af1158015610b76573d6000803e3d6000fd5b505050505b7fc9d0543a84d3510329c0783b91576878ceb484e8699944cb5610c3436b3b8e39838383604051610bae93929190610e4b565b60405180910390a15050505050565b6000546001600160a01b031633146105615760405163118cdaa760e01b815233600482015260240161033c565b600080546001600160a01b038381166001600160a01b0319831681178455604051919092169283917f8be0079c531659141344cd1fd0a4f28419497f9722a3daafe3b4186f6b6457e09190a35050565b600060208284031215610c4c57600080fd5b5035919050565b600060208284031215610c6557600080fd5b813567ffffffffffffffff811115610c7c57600080fd5b820160808185031215610c8e57600080fd5b9392505050565b6001600160a01b038116811461088557600080fd5b60008060408385031215610cbd57600080fd5b823591506020830135610ccf81610c95565b809150509250929050565b60008060408385031215610ced57600080fd5b8235610cf881610c95565b946020939093013593505050565b600060208284031215610d1857600080fd5b813567ffffffffffffffff811115610d2f57600080fd5b820160a08185031215610c8e57600080fd5b60008060008060808587031215610d5757600080fd5b8435610d6281610c95565b966020860135965060408601359560600135945092505050565b600060208284031215610d8e57600080fd5b8135610c8e81610c95565b6000808335601e19843603018112610db057600080fd5b83018035915067ffffffffffffffff821115610dcb57600080fd5b602001915036819003821315610de057600080fd5b9250929050565b600080600060608486031215610dfc57600080fd5b833592506020840135610e0e81610c95565b929592945050506040919091013590565b602080825260129082015271139bdd081d985b1a590818da185a5b881a5960721b604082015260600190565b9283526001600160a01b03919091166020830152604082015260600190565b6000815180845260005b81811015610e9057602081850181015186830182015201610e74565b81811115610ea2576000602083870101525b50601f01601f19169290920160200192915050565b602081528151602082015260018060a01b036020830151166040820152604082015160608201526000606083015160a06080840152610ef960c0840182610e6a565b90506080840151601f198483030160a0850152610f168282610e6a565b95945050505050565b600060208284031215610f3157600080fd5b81518015158114610c8e57600080fd5b600060208284031215610f5357600080fd5b8151610c8e81610c9556fea2646970667358221220d0891cfe024b2cb9a997a232d975c4ba4b06a3bbab150fc9805f40c8208179cf64736f6c63430008090033",
  "devdoc": {
    "errors": {
      "OwnableInvalidOwner(address)": [
        {
          "details": "The owner is not a valid owner account. (eg. `address(0)`)"
        }
      ],
      "OwnableUnauthorizedAccount(address)": [
        {
          "details": "The caller account is not authorized to perform an operation."
        }
      ]
    },
    "kind": "dev",
    "methods": {
      "onBridgeRevert((address,uint256,address,uint256,bytes))": {
        "details": "onBridgeRevert is called when a cross-chain message reverts. It's useful to rollback to the original state"
      },
      "owner()": {
        "details": "Returns the address of the current owner."
      },
      "renounceOwnership()": {
        "details": "Leaves the contract without owner. It will not be possible to call `onlyOwner` functions. Can only be called by the current owner. NOTE: Renouncing ownership will leave the contract without an owner, thereby disabling any functionality that is only available to the owner."
      },
      "transferOwnership(address)": {
        "details": "Transfers ownership of the contract to a new account (`newOwner`). Can only be called by the current owner."
      }
    },
    "version": 1
  },
  "userdoc": {
    "kind": "user",
    "methods": {},
    "version": 1
  },
  "storageLayout": {
    "storage": [
      {
        "astId": 635,
        "contract": "contracts/TokenBridge.sol:TokenBridge",
        "label": "_owner",
        "offset": 0,
        "slot": "0",
        "type": "t_address"
      },
      {
        "astId": 366,
        "contract": "contracts/TokenBridge.sol:TokenBridge",
        "label": "interactorsByChainId",
        "offset": 0,
        "slot": "1",
        "type": "t_mapping(t_uint256,t_address)"
      },
      {
        "astId": 904,
        "contract": "contracts/TokenBridge.sol:TokenBridge",
        "label": "tokenMap",
        "offset": 0,
        "slot": "2",
        "type": "t_mapping(t_uint256,t_address)"
      },
      {
        "astId": 908,
        "contract": "contracts/TokenBridge.sol:TokenBridge",
        "label": "allowedSender",
        "offset": 0,
        "slot": "3",
        "type": "t_mapping(t_uint256,t_address)"
      }
    ],
    "types": {
      "t_address": {
        "encoding": "inplace",
        "label": "address",
        "numberOfBytes": "20"
      },
      "t_mapping(t_uint256,t_address)": {
        "encoding": "mapping",
        "key": "t_uint256",
        "label": "mapping(uint256 => address)",
        "numberOfBytes": "32",
        "value": "t_address"
      },
      "t_uint256": {
        "encoding": "inplace",
        "label": "uint256",
        "numberOfBytes": "32"
      }
    }
  }
}