{
  "address": "0xFD5103511717CcFbfdD2f7dD2929971Aa8B0b301",
  "abi": [
    {
      "inputs": [
        {
          "internalType": "address",
          "name": "tssAddress_",
          "type": "address"
        },
        {
          "internalType": "address",
          "name": "tssAddressUpdater_",
          "type": "address"
        },
        {
          "internalType": "address",
          "name": "pauserAddress_",
          "type": "address"
        }
      ],
      "stateMutability": "nonpayable",
      "type": "constructor"
    },
    {
      "inputs": [
        {
          "internalType": "address",
          "name": "caller",
          "type": "address"
        }
      ],
      "name": "CallerIsNotPauser",
      "type": "error"
    },
    {
      "inputs": [
        {
          "internalType": "address",
          "name": "caller",
          "type": "address"
        }
      ],
      "name": "CallerIsNotTss",
      "type": "error"
    },
    {
      "inputs": [
        {
          "internalType": "address",
          "name": "caller",
          "type": "address"
        }
      ],
      "name": "CallerIsNotTssOrUpdater",
      "type": "error"
    },
    {
      "inputs": [
        {
          "internalType": "address",
          "name": "caller",
          "type": "address"
        }
      ],
      "name": "CallerIsNotTssUpdater",
      "type": "error"
    },
    {
      "inputs": [],
      "name": "EnforcedPause",
      "type": "error"
    },
    {
      "inputs": [
        {
          "internalType": "uint256",
          "name": "maxSupply",
          "type": "uint256"
        }
      ],
      "name": "ExceedsMaxSupply",
      "type": "error"
    },
    {
      "inputs": [],
      "name": "ExpectedPause",
      "type": "error"
    },
    {
      "inputs": [],
      "name": "InvalidAddress",
      "type": "error"
    },
    {
      "anonymous": false,
      "inputs": [
        {
          "indexed": false,
          "internalType": "address",
          "name": "bridgeTxSenderAddress",
          "type": "address"
        },
        {
          "indexed": true,
          "internalType": "uint256",
          "name": "sourceChainId",
          "type": "uint256"
        },
        {
          "indexed": true,
          "internalType": "address",
          "name": "destinationAddress",
          "type": "address"
        },
        {
          "indexed": false,
          "internalType": "bytes",
          "name": "message",
          "type": "bytes"
        },
        {
          "indexed": true,
          "internalType": "bytes32",
          "name": "internalSendHash",
          "type": "bytes32"
        }
      ],
      "name": "BridgeMessageReceived",
      "type": "event"
    },
    {
      "anonymous": false,
      "inputs": [
        {
          "indexed": false,
          "internalType": "address",
          "name": "bridgeTxSenderAddress",
          "type": "address"
        },
        {
          "indexed": false,
          "internalType": "uint256",
          "name": "sourceChainId",
          "type": "uint256"
        },
        {
          "indexed": true,
          "internalType": "uint256",
          "name": "destinationChainId",
          "type": "uint256"
        },
        {
          "indexed": false,
          "internalType": "address",
          "name": "destinationAddress",
          "type": "address"
        },
        {
          "indexed": false,
          "internalType": "bytes",
          "name": "message",
          "type": "bytes"
        },
        {
          "indexed": true,
          "internalType": "bytes32",
          "name": "internalSendHash",
          "type": "bytes32"
        }
      ],
      "name": "BridgeMessageReverted",
      "type": "event"
    },
    {
      "anonymous": false,
      "inputs": [
        {
          "indexed": false,
          "internalType": "address",
          "name": "sourceTxOriginAddress",
          "type": "address"
        },
        {
          "indexed": true,
          "internalType": "address",
          "name": "bridgeTxSenderAddress",
          "type": "address"
        },
        {
          "indexed": true,
          "internalType": "uint256",
          "name": "destinationChainId",
          "type": "uint256"
        },
        {
          "indexed": false,
          "internalType": "address",
          "name": "destinationAddress",
          "type": "address"
        },
        {
          "indexed": false,
          "internalType": "uint256",
          "name": "destinationGasLimit",
          "type": "uint256"
        },
        {
          "indexed": false,
          "internalType": "bytes",
          "name": "message",
          "type": "bytes"
        },
        {
          "indexed": false,
          "internalType": "bytes",
          "name": "bridgeParams",
          "type": "bytes"
        }
      ],
      "name": "BridgeMessageSent",
      "type": "event"
    },
    {
      "anonymous": false,
      "inputs": [
        {
          "indexed": false,
          "internalType": "address",
          "name": "account",
          "type": "address"
        }
      ],
      "name": "Paused",
      "type": "event"
    },
    {
      "anonymous": false,
      "inputs": [
        {
          "indexed": false,
          "internalType": "address",
          "name": "callerAddress",
          "type": "address"
        },
        {
          "indexed": false,
          "internalType": "address",
          "name": "newTssAddress",
          "type": "address"
        }
      ],
      "name": "PauserAddressUpdated",
      "type": "event"
    },
    {
      "anonymous": false,
      "inputs": [
        {
          "indexed": false,
          "internalType": "address",
          "name": "callerAddress",
          "type": "address"
        },
        {
          "indexed": false,
          "internalType": "address",
          "name": "newTssAddress",
          "type": "address"
        }
      ],
      "name": "TSSAddressUpdated",
      "type": "event"
    },
    {
      "anonymous": false,
      "inputs": [
        {
          "indexed": false,
          "internalType": "address",
          "name": "callerAddress",
          "type": "address"
        },
        {
          "indexed": false,
          "internalType": "address",
          "name": "newTssUpdaterAddress",
          "type": "address"
        }
      ],
      "name": "TSSAddressUpdaterUpdated",
      "type": "event"
    },
    {
      "anonymous": false,
      "inputs": [
        {
          "indexed": false,
          "internalType": "address",
          "name": "account",
          "type": "address"
        }
      ],
      "name": "Unpaused",
      "type": "event"
    },
    {
      "inputs": [
        {
          "internalType": "address",
          "name": "txSenderAddress",
          "type": "address"
        },
        {
          "internalType": "uint256",
          "name": "sourceChainId",
          "type": "uint256"
        },
        {
          "internalType": "address",
          "name": "destinationAddress",
          "type": "address"
        },
        {
          "internalType": "bytes",
          "name": "message",
          "type": "bytes"
        },
        {
          "internalType": "bytes32",
          "name": "internalSendHash",
          "type": "bytes32"
        }
      ],
      "name": "onReceive",
      "outputs": [],
      "stateMutability": "nonpayable",
      "type": "function"
    },
    {
      "inputs": [
        {
          "internalType": "address",
          "name": "txSenderAddress",
          "type": "address"
        },
        {
          "internalType": "uint256",
          "name": "sourceChainId",
          "type": "uint256"
        },
        {
          "internalType": "address",
          "name": "destinationAddress",
          "type": "address"
        },
        {
          "internalType": "uint256",
          "name": "destinationChainId",
          "type": "uint256"
        },
        {
          "internalType": "bytes",
          "name": "message",
          "type": "bytes"
        },
        {
          "internalType": "bytes32",
          "name": "internalSendHash",
          "type": "bytes32"
        }
      ],
      "name": "onRevert",
      "outputs": [],
      "stateMutability": "nonpayable",
      "type": "function"
    },
    {
      "inputs": [],
      "name": "pause",
      "outputs": [],
      "stateMutability": "nonpayable",
      "type": "function"
    },
    {
      "inputs": [],
      "name": "paused",
      "outputs": [
        {
          "internalType": "bool",
          "name": "",
          "type": "bool"
        }
      ],
      "stateMutability": "view",
      "type": "function"
    },
    {
      "inputs": [],
      "name": "pauserAddress",
      "outputs": [
        {
          "internalType": "address",
          "name": "",
          "type": "address"
        }
      ],
      "stateMutability": "view",
      "type": "function"
    },
    {
      "inputs": [],
      "name": "renounceTssAddressUpdater",
      "outputs": [],
      "stateMutability": "nonpayable",
      "type": "function"
    },
    {
      "inputs": [
        {
          "components": [
            {
              "internalType": "uint256",
              "name": "destinationChainId",
              "type": "uint256"
            },
            {
              "internalType": "address",
              "name": "destinationAddress",
              "type": "address"
            },
            {
              "internalType": "uint256",
              "name": "destinationGasLimit",
              "type": "uint256"
            },
            {
              "internalType": "bytes",
              "name": "message",
              "type": "bytes"
            },
            {
              "internalType": "bytes",
              "name": "bridgeParams",
              "type": "bytes"
            }
          ],
          "internalType": "struct CarrotBridgeInterfaces.SendInput",
          "name": "input",
          "type": "tuple"
        }
      ],
      "name": "send",
      "outputs": [],
      "stateMutability": "nonpayable",
      "type": "function"
    },
    {
      "inputs": [],
      "name": "tssAddress",
      "outputs": [
        {
          "internalType": "address",
          "name": "",
          "type": "address"
        }
      ],
      "stateMutability": "view",
      "type": "function"
    },
    {
      "inputs": [],
      "name": "tssAddressUpdater",
      "outputs": [
        {
          "internalType": "address",
          "name": "",
          "type": "address"
        }
      ],
      "stateMutability": "view",
      "type": "function"
    },
    {
      "inputs": [],
      "name": "unpause",
      "outputs": [],
      "stateMutability": "nonpayable",
      "type": "function"
    },
    {
      "inputs": [
        {
          "internalType": "address",
          "name": "pauserAddress_",
          "type": "address"
        }
      ],
      "name": "updatePauserAddress",
      "outputs": [],
      "stateMutability": "nonpayable",
      "type": "function"
    },
    {
      "inputs": [
        {
          "internalType": "address",
          "name": "tssAddress_",
          "type": "address"
        }
      ],
      "name": "updateTssAddress",
      "outputs": [],
      "stateMutability": "nonpayable",
      "type": "function"
    }
  ],
  "transactionHash": "0x326b69263f5d67521db741c30919c77822f4871bdf95b9e158a3561496ab8534",
  "args": [
    "0x0163FDb1Fe7A0bFf3c3EaA30dfDdf1EAB66630e0",
    "0xef1F5D4C835Ac094F8D96C26c2A964C99b4050e0",
    "0x0163FDb1Fe7A0bFf3c3EaA30dfDdf1EAB66630e0"
  ],
  "numDeployments": 4,
  "solcInputHash": "39c14ec8fa5f32156481a0b76bcf16b7",
  "bytecode": "0x608060405234801561001057600080fd5b50604051610d9b380380610d9b83398101604081905261002f916100fb565b6000805460ff191690558282826001600160a01b038316158061005957506001600160a01b038216155b8061006b57506001600160a01b038116155b156100895760405163e6c4247b60e01b815260040160405180910390fd5b600180546001600160a01b039485166001600160a01b031991821617909155600280549385169390911692909217909155600080549190921661010002610100600160a81b03199091161790555061013e915050565b80516001600160a01b03811681146100f657600080fd5b919050565b60008060006060848603121561011057600080fd5b610119846100df565b9250610127602085016100df565b9150610135604085016100df565b90509250925092565b610c4e8061014d6000396000f3fe608060405234801561001057600080fd5b50600436106100b45760003560e01c8063738f4c4311610071578063738f4c4314610142578063779e3b63146101555780638456cb591461015d5780639122c34414610165578063d42ae69714610178578063f7fb869b1461018b57600080fd5b8063328a01d0146100b95780633f4ba83a146100e95780635b112591146100f35780635c975abb146101065780636128480f1461011c57806368a360b61461012f575b600080fd5b6002546100cc906001600160a01b031681565b6040516001600160a01b0390911681526020015b60405180910390f35b6100f16101a3565b005b6001546100cc906001600160a01b031681565b60005460ff1660405190151581526020016100e0565b6100f161012a36600461085f565b6101e4565b6100f161013d3660046108ca565b6102a1565b6100f161015036600461094b565b6103f9565b6100f1610548565b6100f16105fc565b6100f161017336600461085f565b610636565b6100f16101863660046109c2565b6106f8565b6000546100cc9061010090046001600160a01b031681565b60005461010090046001600160a01b031633146101da57604051634677a0d360e01b81523360048201526024015b60405180910390fd5b6101e2610772565b565b60005461010090046001600160a01b0316331461021657604051634677a0d360e01b81523360048201526024016101d1565b6001600160a01b03811661023d5760405163e6c4247b60e01b815260040160405180910390fd5b60008054610100600160a81b0319166101006001600160a01b038416908102919091179091556040805133815260208101929092527fd41d83655d484bdf299598751c371b2d92088667266fe3774b25a97bdd5d039791015b60405180910390a150565b6102a96107bf565b6001546001600160a01b031633146102d95760405160016247a98f60e11b031981523360048201526024016101d1565b81156103af57866001600160a01b0316636e66e10d6040518060a001604052808a6001600160a01b03168152602001898152602001886001600160a01b0316815260200187815260200186868080601f01602080910402602001604051908101604052809392919081815260200183838082843760009201919091525050509152506040516001600160e01b031960e084901b16815261037c9190600401610a4a565b600060405180830381600087803b15801561039657600080fd5b505af11580156103aa573d6000803e3d6000fd5b505050505b80847f8c9efa6d2d1300da1bf475fc3c3f8a8a322b9b451714fc898f34001f1314cae089898988886040516103e8959493929190610aca565b60405180910390a350505050505050565b6001546001600160a01b031633146104295760405160016247a98f60e11b031981523360048201526024016101d1565b81156104f957836001600160a01b031663358e83056040518060800160405280896001600160a01b03168152602001888152602001876001600160a01b0316815260200186868080601f01602080910402602001604051908101604052809392919081815260200183838082843760009201919091525050509152506040516001600160e01b031960e084901b1681526104c69190600401610b09565b600060405180830381600087803b1580156104e057600080fd5b505af11580156104f4573d6000803e3d6000fd5b505050505b80846001600160a01b0316867f3b648f0b5d16d0c42a02921d82d9ea47ae4a14fad809c9d0acdccdb78b90089389878760405161053893929190610b4e565b60405180910390a4505050505050565b6002546001600160a01b03163314610575576040516373803b2f60e11b81523360048201526024016101d1565b6001546001600160a01b031661059e5760405163e6c4247b60e01b815260040160405180910390fd5b600154600280546001600160a01b0319166001600160a01b0390921691821790556040805133815260208101929092527f5104c9abdc7d111c2aeb4ce890ac70274a4be2ee83f46a62551be5e6ebc82dd091015b60405180910390a1565b60005461010090046001600160a01b0316331461062e57604051634677a0d360e01b81523360048201526024016101d1565b6101e26107e3565b6001546001600160a01b0316331480159061065c57506002546001600160a01b03163314155b1561067c5760405163cdfcef9760e01b81523360048201526024016101d1565b6001600160a01b0381166106a35760405163e6c4247b60e01b815260040160405180910390fd5b600180546001600160a01b0319166001600160a01b0383169081179091556040805133815260208101929092527fe79965b5c67dcfb2cf5fe152715e4a7256cee62a3d5dd8484fd8a8539eb8beff9101610296565b6107006107bf565b8035337f5b597f6fee9cb6d502de7253fc9d6cd9ca476deb484015b3026c58efbb350b1b32610735604086016020870161085f565b60408601356107476060880188610b7c565b61075460808a018a610b7c565b6040516107679796959493929190610bc3565b60405180910390a350565b61077a610820565b6000805460ff191690557f5db9ee0a495bf2e6ff9c91a7834c1ba4fdd244a5e8aa4e537bd38aeae4b073aa335b6040516001600160a01b0390911681526020016105f2565b60005460ff16156101e25760405163d93c066560e01b815260040160405180910390fd5b6107eb6107bf565b6000805460ff191660011790557f62e78cea01bee320cd4e420270b5ea74000d11b0c9f74754ebdbfc544b05a2586107a73390565b60005460ff166101e257604051638dfc202b60e01b815260040160405180910390fd5b80356001600160a01b038116811461085a57600080fd5b919050565b60006020828403121561087157600080fd5b61087a82610843565b9392505050565b60008083601f84011261089357600080fd5b50813567ffffffffffffffff8111156108ab57600080fd5b6020830191508360208285010111156108c357600080fd5b9250929050565b600080600080600080600060c0888a0312156108e557600080fd5b6108ee88610843565b96506020880135955061090360408901610843565b945060608801359350608088013567ffffffffffffffff81111561092657600080fd5b6109328a828b01610881565b989b979a5095989497959660a090950135949350505050565b60008060008060008060a0878903121561096457600080fd5b61096d87610843565b95506020870135945061098260408801610843565b9350606087013567ffffffffffffffff81111561099e57600080fd5b6109aa89828a01610881565b979a9699509497949695608090950135949350505050565b6000602082840312156109d457600080fd5b813567ffffffffffffffff8111156109eb57600080fd5b820160a0818503121561087a57600080fd5b6000815180845260005b81811015610a2357602081850181015186830182015201610a07565b81811115610a35576000602083870101525b50601f01601f19169290920160200192915050565b60208152600060018060a01b03808451166020840152602084015160408401528060408501511660608401525060608301516080830152608083015160a080840152610a9960c08401826109fd565b949350505050565b81835281816020850137506000828201602090810191909152601f909101601f19169091010190565b6001600160a01b0386811682526020820186905284166040820152608060608201819052600090610afe9083018486610aa1565b979650505050505050565b60208152600060018060a01b0380845116602084015260208401516040840152806040850151166060840152506060830151608080840152610a9960a08401826109fd565b6001600160a01b0384168152604060208201819052600090610b739083018486610aa1565b95945050505050565b6000808335601e19843603018112610b9357600080fd5b83018035915067ffffffffffffffff821115610bae57600080fd5b6020019150368190038213156108c357600080fd5b6001600160a01b038881168252871660208201526040810186905260a060608201819052600090610bf79083018688610aa1565b8281036080840152610c0a818587610aa1565b9a995050505050505050505056fea264697066735822122061d039951d5724105aae618d538b2f52b43c09e4a09a86e1db6446f4c0da236864736f6c63430008090033",
  "devdoc": {
    "details": "ETH implementation of CarrotBridgeConnector. This contract manages interactions between TSS and different chains.",
    "errors": {
      "EnforcedPause()": [
        {
          "details": "The operation failed because the contract is paused."
        }
      ],
      "ExpectedPause()": [
        {
          "details": "The operation failed because the contract is not paused."
        }
      ]
    },
    "kind": "dev",
    "methods": {
      "onReceive(address,uint256,address,bytes,bytes32)": {
        "details": "Handler to receive data from other chain. This method can be called only by TSS."
      },
      "onRevert(address,uint256,address,uint256,bytes,bytes32)": {
        "details": "Handler to receive errors from other chain. This method can be called only by TSS."
      },
      "pause()": {
        "details": "Pause the input (send) transactions."
      },
      "paused()": {
        "details": "Returns true if the contract is paused, and false otherwise."
      },
      "renounceTssAddressUpdater()": {
        "details": "Changes the ownership of tssAddressUpdater to be the one held by the CarrotBridge TSS Signer nodes."
      },
      "send((uint256,address,uint256,bytes,bytes))": {
        "details": "Entrypoint to send data through CarrotBridge This call locks the token on the contract and emits an event with all the data needed by the protocol."
      },
      "unpause()": {
        "details": "Unpause the contract to allow transactions again."
      },
      "updatePauserAddress(address)": {
        "details": "Update the pauser address. The only address allowed to do that is the current pauser."
      },
      "updateTssAddress(address)": {
        "details": "Update the TSS address. The address can be updated by the TSS updater or the TSS address itself."
      }
    },
    "version": 1
  },
  "userdoc": {
    "kind": "user",
    "methods": {},
    "version": 1
  },
  "storageLayout": {
    "storage": [
      {
        "astId": 1016,
        "contract": "contracts/CarrotBridgeConnector.non-fee.sol:CarrotBridgeConnectorNonFee",
        "label": "_paused",
        "offset": 0,
        "slot": "0",
        "type": "t_bool"
      },
      {
        "astId": 12,
        "contract": "contracts/CarrotBridgeConnector.non-fee.sol:CarrotBridgeConnectorNonFee",
        "label": "pauserAddress",
        "offset": 1,
        "slot": "0",
        "type": "t_address"
      },
      {
        "astId": 15,
        "contract": "contracts/CarrotBridgeConnector.non-fee.sol:CarrotBridgeConnectorNonFee",
        "label": "tssAddress",
        "offset": 0,
        "slot": "1",
        "type": "t_address"
      },
      {
        "astId": 18,
        "contract": "contracts/CarrotBridgeConnector.non-fee.sol:CarrotBridgeConnectorNonFee",
        "label": "tssAddressUpdater",
        "offset": 0,
        "slot": "2",
        "type": "t_address"
      }
    ],
    "types": {
      "t_address": {
        "encoding": "inplace",
        "label": "address",
        "numberOfBytes": "20"
      },
      "t_bool": {
        "encoding": "inplace",
        "label": "bool",
        "numberOfBytes": "1"
      }
    }
  }
}